:100000000C9434000C9446000C9446000C9446006A
:100010000C9446000C9446000C9446000C94460048
:100020000C9446000C9446000C9446000C94460038
:100030000C9446000C9446000C9446000C94460028
:100040000C9446000C9446000C9446000C94460018
:100050000C9446000C9464000C9446000C944600EA
:100060000C9446000C94460011241FBECFEFD8E03C
:10007000DEBFCDBF21E0A0E0B1E001C01D92A23003
:10008000B207E1F70E94AE000C94B5000C9400009A
:100090009C01E1E8F0E090819B60908310928500E4
:1000A0001092840030938900209388000895ECE733
:1000B000F0E0808180648083EAE7F0E080818F6EE9
:1000C000808310927B0008951F920F920FB60F92BB
:1000D00011242F933F934F935F936F937F938F934D
:1000E0009F93AF93BF93EF93FF938091780090918C
:1000F0007900909301018093000186E685B9809193
:100100000001909101010E9448008CEC85B980911A
:100110000001909101010E94480089E985B9809110
:100120000001909101010E94480083E385B980910C
:100130000001909101010E944800FF91EF91BF9151
:10014000AF919F918F917F916F915F914F913F916F
:100150002F910F900FBE0F901F90189517B88FEF2B
:0E0160008AB90E9457007894FFCFF894FFCF21
:00000001FF
