S00A000044432E7372656393
S11300000C9434000C9488000C9446000C94460024
S11300100C9446000C9446000C9446000C94460044
S11300200C9446000C9446000C9446000C94460034
S11300300C9446000C9446000C9446000C94460024
S11300400C9446000C9446000C9446000C94460014
S11300500C9446000C945B000C9446000C944600EF
S11300600C9446000C94460011241FBECFEFD8E038
S1130070DEBFCDBF21E0A0E0B1E001C01D92A430FD
S1130080B207E1F70E94AE000C94B5000C94000096
S1130090ECE7F0E0808180648083EAE7F0E080812F
S11300A08F6E808310927B0084B5836884BD85B590
S11300B0816085BD08951F920F920FB60F9211248F
S11300C08F939F938091780090917900909303018E
S11300D08093020180910201909103019695879586
S11300E09695879590930301809302018091020174
S11300F09091030187BD8FE19EE40197F1F700C061
S113010000009F918F910F900FBE0F901F90189534
S11301101F920F920FB60F9211248F939F93809189
S1130120000190910101892B39F481E090E09093D2
S113013001018093000105C017BC109201011092C7
S113014000018FE19EE40197F1F700C000009F9148
S11301508F910F900FBE0F901F90189517B88BEFCB
S11101608AB90E9448007894FFCFF894FFCF2C
S9030000FC
