:100000000C9434000C9446000C9446000C9446006A
:100010000C9446000C9446000C9446000C94460048
:100020000C9446000C9446000C9446000C94460038
:100030000C9446000C9446000C9446000C94460028
:100040000C9446000C9446000C9446000C94460018
:100050000C9446000C9465000C9446000C944600E9
:100060000C9446000C94460011241FBECFEFD8E03C
:10007000DEBFCDBF21E0A0E0B1E001C01D92A23003
:10008000B207E1F70E949A000C94A1000C940000C2
:10009000ECE7F0E0808180648083EAE7F0E0808133
:1000A0008F6E808310927B00E0E8F0E080818268B0
:1000B0008083E1E8F0E080818A61808388E39AE4CC
:1000C000909387008093860008951F920F920FB639
:1000D0000F9211248F939F938091780090917900D3
:1000E00090930101809300018091000190910101A2
:1000F000892B39F488EE93E09093890080938800EF
:100100000CC08091000190910101059731F480EDC0
:1001100097E090938900809388008FE19EE4019797
:10012000F1F700C000009F918F910F900FBE0F90CC
:100130001F90189517B88FEF84B90E9448007894E3
:06014000FFCFF894FFCF91
:00000001FF
